{
  "_format": "hh-sol-artifact-1",
  "contractName": "AddressBook",
  "sourceName": "contracts/AddressBook.sol",
  "abi": [
    {
      "inputs": [],
      "stateMutability": "payable",
      "type": "constructor"
    },
    {
      "inputs": [
        {
          "internalType": "string",
          "name": "_alias",
          "type": "string"
        }
      ],
      "name": "addAlias",
      "outputs": [],
      "stateMutability": "nonpayable",
      "type": "function"
    },
    {
      "inputs": [
        {
          "internalType": "address",
          "name": "",
          "type": "address"
        }
      ],
      "name": "addressToAlias",
      "outputs": [
        {
          "internalType": "string",
          "name": "",
          "type": "string"
        }
      ],
      "stateMutability": "view",
      "type": "function"
    },
    {
      "inputs": [
        {
          "internalType": "string",
          "name": "",
          "type": "string"
        }
      ],
      "name": "aliasToAddress",
      "outputs": [
        {
          "internalType": "address",
          "name": "",
          "type": "address"
        }
      ],
      "stateMutability": "view",
      "type": "function"
    },
    {
      "inputs": [],
      "name": "deleteEntry",
      "outputs": [],
      "stateMutability": "nonpayable",
      "type": "function"
    },
    {
      "inputs": [
        {
          "internalType": "string",
          "name": "_alias",
          "type": "string"
        }
      ],
      "name": "deposit",
      "outputs": [],
      "stateMutability": "payable",
      "type": "function"
    },
    {
      "inputs": [
        {
          "internalType": "string",
          "name": "_alias",
          "type": "string"
        }
      ],
      "name": "getAddress",
      "outputs": [
        {
          "internalType": "address",
          "name": "",
          "type": "address"
        }
      ],
      "stateMutability": "view",
      "type": "function"
    },
    {
      "inputs": [
        {
          "internalType": "address",
          "name": "_addr1",
          "type": "address"
        }
      ],
      "name": "getAlias",
      "outputs": [
        {
          "internalType": "string",
          "name": "",
          "type": "string"
        }
      ],
      "stateMutability": "view",
      "type": "function"
    },
    {
      "inputs": [],
      "name": "getMyAlias",
      "outputs": [
        {
          "internalType": "string",
          "name": "",
          "type": "string"
        }
      ],
      "stateMutability": "view",
      "type": "function"
    }
  ],
  "bytecode": "0x60806040526200004f6040518060400160405280601981526020017f57652068617665206265656e20636f6e737472756374656421000000000000008152506200005560201b620009df1760201c565b620001e9565b620000f5816040516024016200006c919062000162565b6040516020818303038152906040527f41304fac000000000000000000000000000000000000000000000000000000007bffffffffffffffffffffffffffffffffffffffffffffffffffffffff19166020820180517bffffffffffffffffffffffffffffffffffffffffffffffffffffffff8381831617835250505050620000f860201b60201c565b50565b60008151905060006a636f6e736f6c652e6c6f679050602083016000808483855afa5050505050565b60006200012e8262000186565b6200013a818562000191565b93506200014c818560208601620001a2565b6200015781620001d8565b840191505092915050565b600060208201905081810360008301526200017e818462000121565b905092915050565b600081519050919050565b600082825260208201905092915050565b60005b83811015620001c2578082015181840152602081019050620001a5565b83811115620001d2576000848401525b50505050565b6000601f19601f8301169050919050565b61120d80620001f96000396000f3fe60806040526004361061007b5760003560e01c80636c78cd7a1161004e5780636c78cd7a1461012857806399900d1114610165578063a26e1186146101a2578063bf40fac1146101be5761007b565b806302dd3177146100805780630c21cc7b146100bd5780632a773aaa146100e85780634c47165c146100ff575b600080fd5b34801561008c57600080fd5b506100a760048036038101906100a29190610c2a565b6101fb565b6040516100b49190610f26565b60405180910390f35b3480156100c957600080fd5b506100d2610244565b6040516100df9190610f41565b60405180910390f35b3480156100f457600080fd5b506100fd610312565b005b34801561010b57600080fd5b5061012660048036038101906101219190610c2a565b61046a565b005b34801561013457600080fd5b5061014f600480360381019061014a9190610c01565b610648565b60405161015c9190610f41565b60405180910390f35b34801561017157600080fd5b5061018c60048036038101906101879190610c01565b6106e8565b6040516101999190610f41565b60405180910390f35b6101bc60048036038101906101b79190610c2a565b6107b8565b005b3480156101ca57600080fd5b506101e560048036038101906101e09190610c2a565b610997565b6040516101f29190610f26565b60405180910390f35b6001818051602081018201805184825260208301602085012081835280955050505050506000915054906101000a900473ffffffffffffffffffffffffffffffffffffffff1681565b60606000803373ffffffffffffffffffffffffffffffffffffffff1673ffffffffffffffffffffffffffffffffffffffff168152602001908152602001600020805461028f9061111f565b80601f01602080910402602001604051908101604052809291908181526020018280546102bb9061111f565b80156103085780601f106102dd57610100808354040283529160200191610308565b820191906000526020600020905b8154815290600101906020018083116102eb57829003601f168201915b5050505050905090565b60008060003373ffffffffffffffffffffffffffffffffffffffff1673ffffffffffffffffffffffffffffffffffffffff168152602001908152602001600020805461035d9061111f565b905014156103a0576040517f08c379a000000000000000000000000000000000000000000000000000000000815260040161039790610fe3565b60405180910390fd5b60016000803373ffffffffffffffffffffffffffffffffffffffff1673ffffffffffffffffffffffffffffffffffffffff1681526020019081526020016000206040516103ed9190610efa565b908152602001604051809103902060006101000a81549073ffffffffffffffffffffffffffffffffffffffff02191690556000803373ffffffffffffffffffffffffffffffffffffffff1673ffffffffffffffffffffffffffffffffffffffff16815260200190815260200160002060006104689190610aa1565b565b600073ffffffffffffffffffffffffffffffffffffffff166001826040516104929190610ee3565b908152602001604051809103902060009054906101000a900473ffffffffffffffffffffffffffffffffffffffff1673ffffffffffffffffffffffffffffffffffffffff1614610517576040517f08c379a000000000000000000000000000000000000000000000000000000000815260040161050e90610fa3565b60405180910390fd5b60016000803373ffffffffffffffffffffffffffffffffffffffff1673ffffffffffffffffffffffffffffffffffffffff1681526020019081526020016000206040516105649190610efa565b908152602001604051809103902060006101000a81549073ffffffffffffffffffffffffffffffffffffffff0219169055806000803373ffffffffffffffffffffffffffffffffffffffff1673ffffffffffffffffffffffffffffffffffffffff16815260200190815260200160002090805190602001906105e7929190610ae1565b50336001826040516105f99190610ee3565b908152602001604051809103902060006101000a81548173ffffffffffffffffffffffffffffffffffffffff021916908373ffffffffffffffffffffffffffffffffffffffff16021790555050565b600060205280600052604060002060009150905080546106679061111f565b80601f01602080910402602001604051908101604052809291908181526020018280546106939061111f565b80156106e05780601f106106b5576101008083540402835291602001916106e0565b820191906000526020600020905b8154815290600101906020018083116106c357829003601f168201915b505050505081565b60606000808373ffffffffffffffffffffffffffffffffffffffff1673ffffffffffffffffffffffffffffffffffffffff16815260200190815260200160002080546107339061111f565b80601f016020809104026020016040519081016040528092919081815260200182805461075f9061111f565b80156107ac5780601f10610781576101008083540402835291602001916107ac565b820191906000526020600020905b81548152906001019060200180831161078f57829003601f168201915b50505050509050919050565b600073ffffffffffffffffffffffffffffffffffffffff166001826040516107e09190610ee3565b908152602001604051809103902060009054906101000a900473ffffffffffffffffffffffffffffffffffffffff1673ffffffffffffffffffffffffffffffffffffffff161415610866576040517f08c379a000000000000000000000000000000000000000000000000000000000815260040161085d90610fc3565b60405180910390fd5b600034116108a9576040517f08c379a00000000000000000000000000000000000000000000000000000000081526004016108a090610f83565b60405180910390fd5b60006001826040516108bb9190610ee3565b908152602001604051809103902060009054906101000a900473ffffffffffffffffffffffffffffffffffffffff1673ffffffffffffffffffffffffffffffffffffffff163460405161090d90610f11565b60006040518083038185875af1925050503d806000811461094a576040519150601f19603f3d011682016040523d82523d6000602084013e61094f565b606091505b5050905080610993576040517f08c379a000000000000000000000000000000000000000000000000000000000815260040161098a90610f63565b60405180910390fd5b5050565b60006001826040516109a99190610ee3565b908152602001604051809103902060009054906101000a900473ffffffffffffffffffffffffffffffffffffffff169050919050565b610a75816040516024016109f39190610f41565b6040516020818303038152906040527f41304fac000000000000000000000000000000000000000000000000000000007bffffffffffffffffffffffffffffffffffffffffffffffffffffffff19166020820180517bffffffffffffffffffffffffffffffffffffffffffffffffffffffff8381831617835250505050610a78565b50565b60008151905060006a636f6e736f6c652e6c6f679050602083016000808483855afa5050505050565b508054610aad9061111f565b6000825580601f10610abf5750610ade565b601f016020900490600052602060002090810190610add9190610b67565b5b50565b828054610aed9061111f565b90600052602060002090601f016020900481019282610b0f5760008555610b56565b82601f10610b2857805160ff1916838001178555610b56565b82800160010185558215610b56579182015b82811115610b55578251825591602001919060010190610b3a565b5b509050610b639190610b67565b5090565b5b80821115610b80576000816000905550600101610b68565b5090565b6000610b97610b9284611034565b611003565b905082815260208101848484011115610baf57600080fd5b610bba8482856110dd565b509392505050565b600081359050610bd1816111c0565b92915050565b600082601f830112610be857600080fd5b8135610bf8848260208601610b84565b91505092915050565b600060208284031215610c1357600080fd5b6000610c2184828501610bc2565b91505092915050565b600060208284031215610c3c57600080fd5b600082013567ffffffffffffffff811115610c5657600080fd5b610c6284828501610bd7565b91505092915050565b610c74816110ab565b82525050565b6000610c8582611079565b610c8f818561108f565b9350610c9f8185602086016110ec565b610ca8816111af565b840191505092915050565b6000610cbe82611079565b610cc881856110a0565b9350610cd88185602086016110ec565b80840191505092915050565b60008154610cf18161111f565b610cfb81866110a0565b94506001821660008114610d165760018114610d2757610d5a565b60ff19831686528186019350610d5a565b610d3085611064565b60005b83811015610d5257815481890152600182019150602081019050610d33565b838801955050505b50505092915050565b6000610d7060278361108f565b91507f4661696c656420746f207769746864726177206d6f6e65792066726f6d20636f60008301527f6e74726163742e000000000000000000000000000000000000000000000000006020830152604082019050919050565b6000610dd660138361108f565b91507f43616e742053656e64205a65726f2045746821000000000000000000000000006000830152602082019050919050565b6000610e16600b8361108f565b91507f416c6961732054616b656e0000000000000000000000000000000000000000006000830152602082019050919050565b6000610e5660148361108f565b91507f416c696173204e6f74204f6e205265636f7264210000000000000000000000006000830152602082019050919050565b6000610e96600083611084565b9150600082019050919050565b6000610eb060118361108f565b91507f4e6f20416c696173204578697374696e670000000000000000000000000000006000830152602082019050919050565b6000610eef8284610cb3565b915081905092915050565b6000610f068284610ce4565b915081905092915050565b6000610f1c82610e89565b9150819050919050565b6000602082019050610f3b6000830184610c6b565b92915050565b60006020820190508181036000830152610f5b8184610c7a565b905092915050565b60006020820190508181036000830152610f7c81610d63565b9050919050565b60006020820190508181036000830152610f9c81610dc9565b9050919050565b60006020820190508181036000830152610fbc81610e09565b9050919050565b60006020820190508181036000830152610fdc81610e49565b9050919050565b60006020820190508181036000830152610ffc81610ea3565b9050919050565b6000604051905081810181811067ffffffffffffffff8211171561102a57611029611180565b5b8060405250919050565b600067ffffffffffffffff82111561104f5761104e611180565b5b601f19601f8301169050602081019050919050565b60008190508160005260206000209050919050565b600081519050919050565b600081905092915050565b600082825260208201905092915050565b600081905092915050565b60006110b6826110bd565b9050919050565b600073ffffffffffffffffffffffffffffffffffffffff82169050919050565b82818337600083830152505050565b60005b8381101561110a5780820151818401526020810190506110ef565b83811115611119576000848401525b50505050565b6000600282049050600182168061113757607f821691505b6020821081141561114b5761114a611151565b5b50919050565b7f4e487b7100000000000000000000000000000000000000000000000000000000600052602260045260246000fd5b7f4e487b7100000000000000000000000000000000000000000000000000000000600052604160045260246000fd5b6000601f19601f8301169050919050565b6111c9816110ab565b81146111d457600080fd5b5056fea2646970667358221220ac9ed4c98aae94d044a878fb87ea2d2882727964aa463247d56116f6848c068464736f6c63430008000033",
  "linkReferences": {},
  "deployedLinkReferences": {}
}